{
  "_format": "hh-sol-artifact-1",
  "contractName": "DeEcomm",
  "sourceName": "contracts/DeEcomm.sol",
  "abi": [
    {
      "inputs": [],
      "name": "OutOfStock",
      "type": "error"
    },
    {
      "inputs": [
        {
          "internalType": "uint256",
          "name": "_productId",
          "type": "uint256"
        },
        {
          "internalType": "uint256",
          "name": "_quantity",
          "type": "uint256"
        }
      ],
      "name": "buyProduct",
      "outputs": [],
      "stateMutability": "payable",
      "type": "function"
    },
    {
      "inputs": [
        {
          "internalType": "address",
          "name": "",
          "type": "address"
        }
      ],
      "name": "buyers",
      "outputs": [
        {
          "internalType": "string",
          "name": "name",
          "type": "string"
        },
        {
          "internalType": "uint256",
          "name": "locationPinCode",
          "type": "uint256"
        },
        {
          "internalType": "string",
          "name": "locationName",
          "type": "string"
        },
        {
          "internalType": "string",
          "name": "contactNumber",
          "type": "string"
        }
      ],
      "stateMutability": "view",
      "type": "function"
    },
    {
      "inputs": [
        {
          "internalType": "uint256",
          "name": "_orderId",
          "type": "uint256"
        }
      ],
      "name": "confirmDeliveryCustomer",
      "outputs": [],
      "stateMutability": "payable",
      "type": "function"
    },
    {
      "inputs": [
        {
          "internalType": "uint256",
          "name": "_orderId",
          "type": "uint256"
        }
      ],
      "name": "confirmDeliveryDP",
      "outputs": [],
      "stateMutability": "nonpayable",
      "type": "function"
    },
    {
      "inputs": [
        {
          "internalType": "uint256",
          "name": "",
          "type": "uint256"
        }
      ],
      "name": "deliverPersonAddressArray",
      "outputs": [
        {
          "internalType": "address",
          "name": "",
          "type": "address"
        }
      ],
      "stateMutability": "view",
      "type": "function"
    },
    {
      "inputs": [
        {
          "internalType": "address",
          "name": "",
          "type": "address"
        }
      ],
      "name": "deliveryPersons",
      "outputs": [
        {
          "internalType": "string",
          "name": "name",
          "type": "string"
        },
        {
          "internalType": "string",
          "name": "contactNumber",
          "type": "string"
        },
        {
          "internalType": "string",
          "name": "companyName",
          "type": "string"
        },
        {
          "internalType": "address",
          "name": "dpAddress",
          "type": "address"
        },
        {
          "internalType": "uint256",
          "name": "employeeID",
          "type": "uint256"
        }
      ],
      "stateMutability": "view",
      "type": "function"
    },
    {
      "inputs": [
        {
          "internalType": "address",
          "name": "",
          "type": "address"
        }
      ],
      "name": "orderCount",
      "outputs": [
        {
          "internalType": "uint256",
          "name": "",
          "type": "uint256"
        }
      ],
      "stateMutability": "view",
      "type": "function"
    },
    {
      "inputs": [
        {
          "internalType": "uint256",
          "name": "",
          "type": "uint256"
        }
      ],
      "name": "orderList",
      "outputs": [
        {
          "internalType": "uint256",
          "name": "orderId",
          "type": "uint256"
        },
        {
          "internalType": "uint256",
          "name": "quantity",
          "type": "uint256"
        },
        {
          "internalType": "address",
          "name": "buyer",
          "type": "address"
        },
        {
          "internalType": "bool",
          "name": "bid",
          "type": "bool"
        },
        {
          "internalType": "address",
          "name": "deliveryPerson",
          "type": "address"
        },
        {
          "internalType": "uint256",
          "name": "deliveryPrice",
          "type": "uint256"
        },
        {
          "internalType": "string",
          "name": "deliveryTime",
          "type": "string"
        },
        {
          "internalType": "uint256",
          "name": "orderPrice",
          "type": "uint256"
        },
        {
          "internalType": "address payable",
          "name": "seller",
          "type": "address"
        },
        {
          "components": [
            {
              "internalType": "bool",
              "name": "started",
              "type": "bool"
            },
            {
              "internalType": "uint256",
              "name": "endAt",
              "type": "uint256"
            }
          ],
          "internalType": "struct DeEcomm.Bidding",
          "name": "bidding",
          "type": "tuple"
        },
        {
          "internalType": "enum DeEcomm.OrderStatus",
          "name": "status",
          "type": "uint8"
        }
      ],
      "stateMutability": "view",
      "type": "function"
    },
    {
      "inputs": [
        {
          "internalType": "address",
          "name": "",
          "type": "address"
        },
        {
          "internalType": "uint256",
          "name": "",
          "type": "uint256"
        }
      ],
      "name": "orders",
      "outputs": [
        {
          "internalType": "uint256",
          "name": "orderId",
          "type": "uint256"
        },
        {
          "internalType": "uint256",
          "name": "quantity",
          "type": "uint256"
        },
        {
          "internalType": "address",
          "name": "buyer",
          "type": "address"
        },
        {
          "internalType": "bool",
          "name": "bid",
          "type": "bool"
        },
        {
          "internalType": "address",
          "name": "deliveryPerson",
          "type": "address"
        },
        {
          "internalType": "uint256",
          "name": "deliveryPrice",
          "type": "uint256"
        },
        {
          "internalType": "string",
          "name": "deliveryTime",
          "type": "string"
        },
        {
          "internalType": "uint256",
          "name": "orderPrice",
          "type": "uint256"
        },
        {
          "internalType": "address payable",
          "name": "seller",
          "type": "address"
        },
        {
          "components": [
            {
              "internalType": "bool",
              "name": "started",
              "type": "bool"
            },
            {
              "internalType": "uint256",
              "name": "endAt",
              "type": "uint256"
            }
          ],
          "internalType": "struct DeEcomm.Bidding",
          "name": "bidding",
          "type": "tuple"
        },
        {
          "internalType": "enum DeEcomm.OrderStatus",
          "name": "status",
          "type": "uint8"
        }
      ],
      "stateMutability": "view",
      "type": "function"
    },
    {
      "inputs": [
        {
          "internalType": "uint256",
          "name": "_orderId",
          "type": "uint256"
        },
        {
          "internalType": "uint256",
          "name": "_dprice",
          "type": "uint256"
        }
      ],
      "name": "payDeliveryPrice",
      "outputs": [],
      "stateMutability": "payable",
      "type": "function"
    },
    {
      "inputs": [
        {
          "internalType": "uint256",
          "name": "_orderId",
          "type": "uint256"
        }
      ],
      "name": "pickupOrder",
      "outputs": [],
      "stateMutability": "nonpayable",
      "type": "function"
    },
    {
      "inputs": [
        {
          "internalType": "uint256",
          "name": "",
          "type": "uint256"
        }
      ],
      "name": "products",
      "outputs": [
        {
          "internalType": "uint256",
          "name": "productId",
          "type": "uint256"
        },
        {
          "internalType": "uint256",
          "name": "price",
          "type": "uint256"
        },
        {
          "internalType": "uint256",
          "name": "availableQuantity",
          "type": "uint256"
        },
        {
          "internalType": "address payable",
          "name": "seller",
          "type": "address"
        }
      ],
      "stateMutability": "view",
      "type": "function"
    },
    {
      "inputs": [
        {
          "internalType": "uint256",
          "name": "_orderId",
          "type": "uint256"
        }
      ],
      "name": "recieveMoney",
      "outputs": [],
      "stateMutability": "nonpayable",
      "type": "function"
    },
    {
      "inputs": [
        {
          "internalType": "uint256",
          "name": "_price",
          "type": "uint256"
        },
        {
          "internalType": "uint256",
          "name": "_avalQuantity",
          "type": "uint256"
        }
      ],
      "name": "regProduct",
      "outputs": [],
      "stateMutability": "nonpayable",
      "type": "function"
    },
    {
      "inputs": [
        {
          "internalType": "address",
          "name": "",
          "type": "address"
        }
      ],
      "name": "sellers",
      "outputs": [
        {
          "internalType": "string",
          "name": "name",
          "type": "string"
        },
        {
          "internalType": "uint256",
          "name": "locationPinCode",
          "type": "uint256"
        },
        {
          "internalType": "string",
          "name": "locationName",
          "type": "string"
        },
        {
          "internalType": "string",
          "name": "contactNumber",
          "type": "string"
        }
      ],
      "stateMutability": "view",
      "type": "function"
    },
    {
      "inputs": [
        {
          "internalType": "string",
          "name": "_name",
          "type": "string"
        },
        {
          "internalType": "uint256",
          "name": "_locationPinCode",
          "type": "uint256"
        },
        {
          "internalType": "string",
          "name": "_locationName",
          "type": "string"
        },
        {
          "internalType": "string",
          "name": "_contactNumber",
          "type": "string"
        }
      ],
      "name": "signUpForBuyer",
      "outputs": [],
      "stateMutability": "nonpayable",
      "type": "function"
    },
    {
      "inputs": [
        {
          "internalType": "string",
          "name": "_companyName",
          "type": "string"
        },
        {
          "internalType": "string",
          "name": "_contactNumber",
          "type": "string"
        },
        {
          "internalType": "string",
          "name": "_name",
          "type": "string"
        },
        {
          "internalType": "uint256",
          "name": "_empId",
          "type": "uint256"
        }
      ],
      "name": "signUpForDeliveryPerson",
      "outputs": [],
      "stateMutability": "nonpayable",
      "type": "function"
    },
    {
      "inputs": [
        {
          "internalType": "string",
          "name": "_name",
          "type": "string"
        },
        {
          "internalType": "uint256",
          "name": "_locationPinCode",
          "type": "uint256"
        },
        {
          "internalType": "string",
          "name": "_locationName",
          "type": "string"
        },
        {
          "internalType": "string",
          "name": "_contactNumber",
          "type": "string"
        }
      ],
      "name": "signUpForSeller",
      "outputs": [],
      "stateMutability": "nonpayable",
      "type": "function"
    }
  ],
  "bytecode": "0x608060405260016000556001805534801561001957600080fd5b50613a5f806100296000396000f3fe6080604052600436106101095760003560e01c8063793b8c6d1161009557806397a993aa1161006457806397a993aa146103c05780639eb722cf14610400578063a928f56a1461041c578063e886846b14610445578063f12a62011461046157610109565b8063793b8c6d146102e757806379c47bc41461032e5780637acc0b201461035757806394efa2b41461039757610109565b806353b62866116100dc57806353b62866146101ca578063627ee876146101e65780636d47ab7214610223578063713d856b1461026357806376f75e7f146102a057610109565b80631c281c9a1461010e5780632a454bd81461014f5780633cdfbc10146101785780634dd52dc1146101a1575b600080fd5b34801561011a57600080fd5b5061013560048036038101906101309190612adf565b61048a565b604051610146959493929190613028565b60405180910390f35b34801561015b57600080fd5b5061017660048036038101906101719190612cc2565b610678565b005b34801561018457600080fd5b5061019f600480360381019061019a9190612cef565b6107e8565b005b3480156101ad57600080fd5b506101c860048036038101906101c39190612cc2565b6109ef565b005b6101e460048036038101906101df9190612cef565b610b5e565b005b3480156101f257600080fd5b5061020d60048036038101906102089190612cc2565b6112a7565b60405161021a919061300d565b60405180910390f35b34801561022f57600080fd5b5061024a60048036038101906102459190612adf565b6112e6565b60405161025a9493929190613090565b60405180910390f35b34801561026f57600080fd5b5061028a60048036038101906102859190612adf565b6114ae565b60405161029791906132ca565b60405180910390f35b3480156102ac57600080fd5b506102c760048036038101906102c29190612cc2565b6114c6565b6040516102de9b9a999897969594939291906132e5565b60405180910390f35b3480156102f357600080fd5b5061030e60048036038101906103099190612b0c565b611651565b6040516103259b9a999897969594939291906132e5565b60405180910390f35b34801561033a57600080fd5b5061035560048036038101906103509190612cc2565b6117e9565b005b34801561036357600080fd5b5061037e60048036038101906103799190612cc2565b611a0a565b60405161038e9493929190613397565b60405180910390f35b3480156103a357600080fd5b506103be60048036038101906103b99190612c07565b611a5a565b005b3480156103cc57600080fd5b506103e760048036038101906103e29190612adf565b611cd1565b6040516103f79493929190613090565b60405180910390f35b61041a60048036038101906104159190612cef565b611e99565b005b34801561042857600080fd5b50610443600480360381019061043e9190612c07565b61202b565b005b61045f600480360381019061045a9190612cc2565b6122a2565b005b34801561046d57600080fd5b5061048860048036038101906104839190612b4c565b61246a565b005b60066020528060005260406000206000915090508060000180546104ad906135f3565b80601f01602080910402602001604051908101604052809291908181526020018280546104d9906135f3565b80156105265780601f106104fb57610100808354040283529160200191610526565b820191906000526020600020905b81548152906001019060200180831161050957829003601f168201915b50505050509080600101805461053b906135f3565b80601f0160208091040260200160405190810160405280929190818152602001828054610567906135f3565b80156105b45780601f10610589576101008083540402835291602001916105b4565b820191906000526020600020905b81548152906001019060200180831161059757829003601f168201915b5050505050908060020180546105c9906135f3565b80601f01602080910402602001604051908101604052809291908181526020018280546105f5906135f3565b80156106425780601f1061061757610100808354040283529160200191610642565b820191906000526020600020905b81548152906001019060200180831161062557829003601f168201915b5050505050908060030160009054906101000a900473ffffffffffffffffffffffffffffffffffffffff16908060040154905085565b3373ffffffffffffffffffffffffffffffffffffffff166005600083815260200190815260200160002060030160009054906101000a900473ffffffffffffffffffffffffffffffffffffffff1673ffffffffffffffffffffffffffffffffffffffff161461071c576040517f08c379a00000000000000000000000000000000000000000000000000000000081526004016107139061326a565b60405180910390fd5b600160058111156107305761072f6136ce565b5b60056000838152602001908152602001600020600a0160009054906101000a900460ff166005811115610766576107656136ce565b5b146107a6576040517f08c379a000000000000000000000000000000000000000000000000000000000815260040161079d906131aa565b60405180910390fd5b600360056000838152602001908152602001600020600a0160006101000a81548160ff021916908360058111156107e0576107df6136ce565b5b021790555050565b6000600860003373ffffffffffffffffffffffffffffffffffffffff1673ffffffffffffffffffffffffffffffffffffffff16815260200190815260200160002060010154141561086e576040517f08c379a00000000000000000000000000000000000000000000000000000000081526004016108659061326a565b60405180910390fd5b60008214156108b2576040517f08c379a00000000000000000000000000000000000000000000000000000000081526004016108a99061318a565b60405180910390fd5b60008114156108f6576040517f08c379a00000000000000000000000000000000000000000000000000000000081526004016108ed9061314a565b60405180910390fd5b6108fe6127fd565b828160200181815250508181604001818152505033816060019073ffffffffffffffffffffffffffffffffffffffff16908173ffffffffffffffffffffffffffffffffffffffff168152505060005481600001818152505080600260008054815260200190815260200160002060008201518160000155602082015181600101556040820151816002015560608201518160030160006101000a81548173ffffffffffffffffffffffffffffffffffffffff021916908373ffffffffffffffffffffffffffffffffffffffff1602179055509050506000808154809291906109e590613656565b9190505550505050565b3373ffffffffffffffffffffffffffffffffffffffff166005600083815260200190815260200160002060030160009054906101000a900473ffffffffffffffffffffffffffffffffffffffff1673ffffffffffffffffffffffffffffffffffffffff1614610a93576040517f08c379a0000000000000000000000000000000000000000000000000000000008152600401610a8a9061326a565b60405180910390fd5b600580811115610aa657610aa56136ce565b5b60056000838152602001908152602001600020600a0160009054906101000a900460ff166005811115610adc57610adb6136ce565b5b14610b1c576040517f08c379a0000000000000000000000000000000000000000000000000000000008152600401610b139061324a565b60405180910390fd5b600160056000838152602001908152602001600020600a0160006101000a81548160ff02191690836005811115610b5657610b556136ce565b5b021790555050565b6000600760003373ffffffffffffffffffffffffffffffffffffffff1673ffffffffffffffffffffffffffffffffffffffff168152602001908152602001600020600101541415610be4576040517f08c379a0000000000000000000000000000000000000000000000000000000008152600401610bdb9061326a565b60405180910390fd5b600060026000848152602001908152602001600020600201541415610c35576040517fade1cb4100000000000000000000000000000000000000000000000000000000815260040160405180910390fd5b6002600083815260200190815260200160002060020154811115610c8e576040517f08c379a0000000000000000000000000000000000000000000000000000000008152600401610c85906132aa565b60405180910390fd5b806002600084815260200190815260200160002060010154610cb091906134a4565b3414610cf1576040517f08c379a0000000000000000000000000000000000000000000000000000000008152600401610ce89061312a565b60405180910390fd5b610cf961283b565b33816040019073ffffffffffffffffffffffffffffffffffffffff16908173ffffffffffffffffffffffffffffffffffffffff168152505081816020018181525050600181606001901515908115158152505060015481600001818152505060018161012001516000019015159081151581525050603c42610d7b919061344e565b8161012001516020018181525050816002600085815260200190815260200160002060010154610dab91906134a4565b8160e00181815250506002600084815260200190815260200160002060030160009054906101000a900473ffffffffffffffffffffffffffffffffffffffff1681610100019073ffffffffffffffffffffffffffffffffffffffff16908173ffffffffffffffffffffffffffffffffffffffff168152505080600360003373ffffffffffffffffffffffffffffffffffffffff1673ffffffffffffffffffffffffffffffffffffffff16815260200190815260200160002060006001548152602001908152602001600020600082015181600001556020820151816001015560408201518160020160006101000a81548173ffffffffffffffffffffffffffffffffffffffff021916908373ffffffffffffffffffffffffffffffffffffffff16021790555060608201518160020160146101000a81548160ff02191690831515021790555060808201518160030160006101000a81548173ffffffffffffffffffffffffffffffffffffffff021916908373ffffffffffffffffffffffffffffffffffffffff16021790555060a0820151816004015560c0820151816005019080519060200190610f5e9291906128f1565b5060e082015181600601556101008201518160070160006101000a81548173ffffffffffffffffffffffffffffffffffffffff021916908373ffffffffffffffffffffffffffffffffffffffff1602179055506101208201518160080160008201518160000160006101000a81548160ff02191690831515021790555060208201518160010155505061014082015181600a0160006101000a81548160ff02191690836005811115611013576110126136ce565b5b021790555090505080600560006001548152602001908152602001600020600082015181600001556020820151816001015560408201518160020160006101000a81548173ffffffffffffffffffffffffffffffffffffffff021916908373ffffffffffffffffffffffffffffffffffffffff16021790555060608201518160020160146101000a81548160ff02191690831515021790555060808201518160030160006101000a81548173ffffffffffffffffffffffffffffffffffffffff021916908373ffffffffffffffffffffffffffffffffffffffff16021790555060a0820151816004015560c08201518160050190805190602001906111199291906128f1565b5060e082015181600601556101008201518160070160006101000a81548173ffffffffffffffffffffffffffffffffffffffff021916908373ffffffffffffffffffffffffffffffffffffffff1602179055506101208201518160080160008201518160000160006101000a81548160ff02191690831515021790555060208201518160010155505061014082015181600a0160006101000a81548160ff021916908360058111156111ce576111cd6136ce565b5b0217905550905050600081610140019060058111156111f0576111ef6136ce565b5b90816005811115611204576112036136ce565b5b81525050600460003373ffffffffffffffffffffffffffffffffffffffff1673ffffffffffffffffffffffffffffffffffffffff168152602001908152602001600020600081548092919061125890613656565b91905055506001600081548092919061127090613656565b91905055508160026000858152602001908152602001600020600201600082825461129b91906134fe565b92505081905550505050565b600981815481106112b757600080fd5b906000526020600020016000915054906101000a900473ffffffffffffffffffffffffffffffffffffffff1681565b6008602052806000526040600020600091509050806000018054611309906135f3565b80601f0160208091040260200160405190810160405280929190818152602001828054611335906135f3565b80156113825780601f1061135757610100808354040283529160200191611382565b820191906000526020600020905b81548152906001019060200180831161136557829003601f168201915b50505050509080600101549080600201805461139d906135f3565b80601f01602080910402602001604051908101604052809291908181526020018280546113c9906135f3565b80156114165780601f106113eb57610100808354040283529160200191611416565b820191906000526020600020905b8154815290600101906020018083116113f957829003601f168201915b50505050509080600301805461142b906135f3565b80601f0160208091040260200160405190810160405280929190818152602001828054611457906135f3565b80156114a45780601f10611479576101008083540402835291602001916114a4565b820191906000526020600020905b81548152906001019060200180831161148757829003601f168201915b5050505050905084565b60046020528060005260406000206000915090505481565b60056020528060005260406000206000915090508060000154908060010154908060020160009054906101000a900473ffffffffffffffffffffffffffffffffffffffff16908060020160149054906101000a900460ff16908060030160009054906101000a900473ffffffffffffffffffffffffffffffffffffffff169080600401549080600501805461155a906135f3565b80601f0160208091040260200160405190810160405280929190818152602001828054611586906135f3565b80156115d35780601f106115a8576101008083540402835291602001916115d3565b820191906000526020600020905b8154815290600101906020018083116115b657829003601f168201915b5050505050908060060154908060070160009054906101000a900473ffffffffffffffffffffffffffffffffffffffff1690806008016040518060400160405290816000820160009054906101000a900460ff161515151581526020016001820154815250509080600a0160009054906101000a900460ff1690508b565b6003602052816000526040600020602052806000526040600020600091509150508060000154908060010154908060020160009054906101000a900473ffffffffffffffffffffffffffffffffffffffff16908060020160149054906101000a900460ff16908060030160009054906101000a900473ffffffffffffffffffffffffffffffffffffffff16908060040154908060050180546116f2906135f3565b80601f016020809104026020016040519081016040528092919081815260200182805461171e906135f3565b801561176b5780601f106117405761010080835404028352916020019161176b565b820191906000526020600020905b81548152906001019060200180831161174e57829003601f168201915b5050505050908060060154908060070160009054906101000a900473ffffffffffffffffffffffffffffffffffffffff1690806008016040518060400160405290816000820160009054906101000a900460ff161515151581526020016001820154815250509080600a0160009054906101000a900460ff1690508b565b3373ffffffffffffffffffffffffffffffffffffffff166005600083815260200190815260200160002060030160009054906101000a900473ffffffffffffffffffffffffffffffffffffffff1673ffffffffffffffffffffffffffffffffffffffff161461188d576040517f08c379a00000000000000000000000000000000000000000000000000000000081526004016118849061326a565b60405180910390fd5b600460058111156118a1576118a06136ce565b5b60056000838152602001908152602001600020600a0160009054906101000a900460ff1660058111156118d7576118d66136ce565b5b14611917576040517f08c379a000000000000000000000000000000000000000000000000000000000815260040161190e906130ea565b60405180910390fd5b6005600082815260200190815260200160002060070160009054906101000a900473ffffffffffffffffffffffffffffffffffffffff1673ffffffffffffffffffffffffffffffffffffffff166108fc60056000848152602001908152602001600020600601549081150290604051600060405180830381858888f193505050501580156119a9573d6000803e3d6000fd5b503373ffffffffffffffffffffffffffffffffffffffff166108fc60056000848152602001908152602001600020600401549081150290604051600060405180830381858888f19350505050158015611a06573d6000803e3d6000fd5b5050565b60026020528060005260406000206000915090508060000154908060010154908060020154908060030160009054906101000a900473ffffffffffffffffffffffffffffffffffffffff16905084565b6000831415611a9e576040517f08c379a0000000000000000000000000000000000000000000000000000000008152600401611a95906131ca565b60405180910390fd5b600081511415611ae3576040517f08c379a0000000000000000000000000000000000000000000000000000000008152600401611ada9061322a565b60405180910390fd5b6000600660003373ffffffffffffffffffffffffffffffffffffffff1673ffffffffffffffffffffffffffffffffffffffff1681526020019081526020016000206001018054611b32906135f3565b905014611b74576040517f08c379a0000000000000000000000000000000000000000000000000000000008152600401611b6b9061316a565b60405180910390fd5b6000600760003373ffffffffffffffffffffffffffffffffffffffff1673ffffffffffffffffffffffffffffffffffffffff1681526020019081526020016000206001015414611bf9576040517f08c379a0000000000000000000000000000000000000000000000000000000008152600401611bf0906131ea565b60405180910390fd5b611c01612977565b8481600001819052508381602001818152505082816040018190525081816060018190525080600860003373ffffffffffffffffffffffffffffffffffffffff1673ffffffffffffffffffffffffffffffffffffffff1681526020019081526020016000206000820151816000019080519060200190611c829291906128f1565b50602082015181600101556040820151816002019080519060200190611ca99291906128f1565b506060820151816003019080519060200190611cc69291906128f1565b509050505050505050565b6007602052806000526040600020600091509050806000018054611cf4906135f3565b80601f0160208091040260200160405190810160405280929190818152602001828054611d20906135f3565b8015611d6d5780601f10611d4257610100808354040283529160200191611d6d565b820191906000526020600020905b815481529060010190602001808311611d5057829003601f168201915b505050505090806001015490806002018054611d88906135f3565b80601f0160208091040260200160405190810160405280929190818152602001828054611db4906135f3565b8015611e015780601f10611dd657610100808354040283529160200191611e01565b820191906000526020600020905b815481529060010190602001808311611de457829003601f168201915b505050505090806003018054611e16906135f3565b80601f0160208091040260200160405190810160405280929190818152602001828054611e42906135f3565b8015611e8f5780601f10611e6457610100808354040283529160200191611e8f565b820191906000526020600020905b815481529060010190602001808311611e7257829003601f168201915b5050505050905084565b600580811115611eac57611eab6136ce565b5b60056000848152602001908152602001600020600a0160009054906101000a900460ff166005811115611ee257611ee16136ce565b5b14611eec57600080fd5b3373ffffffffffffffffffffffffffffffffffffffff166005600084815260200190815260200160002060020160009054906101000a900473ffffffffffffffffffffffffffffffffffffffff1673ffffffffffffffffffffffffffffffffffffffff1614611f90576040517f08c379a0000000000000000000000000000000000000000000000000000000008152600401611f879061326a565b60405180910390fd5b60056000838152602001908152602001600020600401548114611fe8576040517f08c379a0000000000000000000000000000000000000000000000000000000008152600401611fdf9061312a565b60405180910390fd5b600260056000848152602001908152602001600020600a0160006101000a81548160ff02191690836005811115612022576120216136ce565b5b02179055505050565b600083141561206f576040517f08c379a0000000000000000000000000000000000000000000000000000000008152600401612066906131ca565b60405180910390fd5b6000815114156120b4576040517f08c379a00000000000000000000000000000000000000000000000000000000081526004016120ab9061322a565b60405180910390fd5b6000600860003373ffffffffffffffffffffffffffffffffffffffff1673ffffffffffffffffffffffffffffffffffffffff1681526020019081526020016000206001015414612139576040517f08c379a00000000000000000000000000000000000000000000000000000000081526004016121309061328a565b60405180910390fd5b6000600660003373ffffffffffffffffffffffffffffffffffffffff1673ffffffffffffffffffffffffffffffffffffffff1681526020019081526020016000206001018054612188906135f3565b9050146121ca576040517f08c379a00000000000000000000000000000000000000000000000000000000081526004016121c19061316a565b60405180910390fd5b6121d261299f565b8481600001819052508381602001818152505082816040018190525081816060018190525080600760003373ffffffffffffffffffffffffffffffffffffffff1673ffffffffffffffffffffffffffffffffffffffff16815260200190815260200160002060008201518160000190805190602001906122539291906128f1565b5060208201518160010155604082015181600201908051906020019061227a9291906128f1565b5060608201518160030190805190602001906122979291906128f1565b509050505050505050565b600560008281526020019081526020016000206004015434146122fa576040517f08c379a00000000000000000000000000000000000000000000000000000000081526004016122f19061310a565b60405180910390fd5b3373ffffffffffffffffffffffffffffffffffffffff166005600083815260200190815260200160002060020160009054906101000a900473ffffffffffffffffffffffffffffffffffffffff1673ffffffffffffffffffffffffffffffffffffffff161461239e576040517f08c379a00000000000000000000000000000000000000000000000000000000081526004016123959061326a565b60405180910390fd5b600360058111156123b2576123b16136ce565b5b60056000838152602001908152602001600020600a0160009054906101000a900460ff1660058111156123e8576123e76136ce565b5b14612428576040517f08c379a000000000000000000000000000000000000000000000000000000000815260040161241f9061320a565b60405180910390fd5b600460056000838152602001908152602001600020600a0160006101000a81548160ff02191690836005811115612462576124616136ce565b5b021790555050565b6000835114156124af576040517f08c379a00000000000000000000000000000000000000000000000000000000081526004016124a6906131ca565b60405180910390fd5b6000845114156124f4576040517f08c379a00000000000000000000000000000000000000000000000000000000081526004016124eb906131ca565b60405180910390fd5b600082511415612539576040517f08c379a0000000000000000000000000000000000000000000000000000000008152600401612530906131ca565b60405180910390fd5b6000600760003373ffffffffffffffffffffffffffffffffffffffff1673ffffffffffffffffffffffffffffffffffffffff16815260200190815260200160002060010154146125be576040517f08c379a00000000000000000000000000000000000000000000000000000000081526004016125b5906131ea565b60405180910390fd5b6000600860003373ffffffffffffffffffffffffffffffffffffffff1673ffffffffffffffffffffffffffffffffffffffff1681526020019081526020016000206001015414612643576040517f08c379a000000000000000000000000000000000000000000000000000000000815260040161263a9061328a565b60405180910390fd5b61264b6129c7565b84816040018190525083816020018190525082816000018190525033816060019073ffffffffffffffffffffffffffffffffffffffff16908173ffffffffffffffffffffffffffffffffffffffff16815250508181608001818152505080600660003373ffffffffffffffffffffffffffffffffffffffff1673ffffffffffffffffffffffffffffffffffffffff16815260200190815260200160002060008201518160000190805190602001906127049291906128f1565b5060208201518160010190805190602001906127219291906128f1565b50604082015181600201908051906020019061273e9291906128f1565b5060608201518160030160006101000a81548173ffffffffffffffffffffffffffffffffffffffff021916908373ffffffffffffffffffffffffffffffffffffffff160217905550608082015181600401559050506009339080600181540180825580915050600190039060005260206000200160009091909190916101000a81548173ffffffffffffffffffffffffffffffffffffffff021916908373ffffffffffffffffffffffffffffffffffffffff1602179055505050505050565b6040518060800160405280600081526020016000815260200160008152602001600073ffffffffffffffffffffffffffffffffffffffff1681525090565b6040518061016001604052806000815260200160008152602001600073ffffffffffffffffffffffffffffffffffffffff168152602001600015158152602001600073ffffffffffffffffffffffffffffffffffffffff168152602001600081526020016060815260200160008152602001600073ffffffffffffffffffffffffffffffffffffffff1681526020016128d2612a0c565b8152602001600060058111156128eb576128ea6136ce565b5b81525090565b8280546128fd906135f3565b90600052602060002090601f01602090048101928261291f5760008555612966565b82601f1061293857805160ff1916838001178555612966565b82800160010185558215612966579182015b8281111561296557825182559160200191906001019061294a565b5b5090506129739190612a28565b5090565b6040518060800160405280606081526020016000815260200160608152602001606081525090565b6040518060800160405280606081526020016000815260200160608152602001606081525090565b6040518060a00160405280606081526020016060815260200160608152602001600073ffffffffffffffffffffffffffffffffffffffff168152602001600081525090565b6040518060400160405280600015158152602001600081525090565b5b80821115612a41576000816000905550600101612a29565b5090565b6000612a58612a5384613401565b6133dc565b905082815260208101848484011115612a7457612a73613760565b5b612a7f8482856135b1565b509392505050565b600081359050612a96816139fb565b92915050565b600082601f830112612ab157612ab061375b565b5b8135612ac1848260208601612a45565b91505092915050565b600081359050612ad981613a12565b92915050565b600060208284031215612af557612af461376a565b5b6000612b0384828501612a87565b91505092915050565b60008060408385031215612b2357612b2261376a565b5b6000612b3185828601612a87565b9250506020612b4285828601612aca565b9150509250929050565b60008060008060808587031215612b6657612b6561376a565b5b600085013567ffffffffffffffff811115612b8457612b83613765565b5b612b9087828801612a9c565b945050602085013567ffffffffffffffff811115612bb157612bb0613765565b5b612bbd87828801612a9c565b935050604085013567ffffffffffffffff811115612bde57612bdd613765565b5b612bea87828801612a9c565b9250506060612bfb87828801612aca565b91505092959194509250565b60008060008060808587031215612c2157612c2061376a565b5b600085013567ffffffffffffffff811115612c3f57612c3e613765565b5b612c4b87828801612a9c565b9450506020612c5c87828801612aca565b935050604085013567ffffffffffffffff811115612c7d57612c7c613765565b5b612c8987828801612a9c565b925050606085013567ffffffffffffffff811115612caa57612ca9613765565b5b612cb687828801612a9c565b91505092959194509250565b600060208284031215612cd857612cd761376a565b5b6000612ce684828501612aca565b91505092915050565b60008060408385031215612d0657612d0561376a565b5b6000612d1485828601612aca565b9250506020612d2585828601612aca565b9150509250929050565b612d3881613544565b82525050565b612d4781613532565b82525050565b612d5681613556565b82525050565b612d6581613556565b82525050565b612d748161359f565b82525050565b6000612d8582613432565b612d8f818561343d565b9350612d9f8185602086016135c0565b612da88161376f565b840191505092915050565b6000612dc0601f8361343d565b9150612dcb82613780565b602082019050919050565b6000612de360168361343d565b9150612dee826137a9565b602082019050919050565b6000612e0660118361343d565b9150612e11826137d2565b602082019050919050565b6000612e2960178361343d565b9150612e34826137fb565b602082019050919050565b6000612e4c60178361343d565b9150612e5782613824565b602082019050919050565b6000612e6f60148361343d565b9150612e7a8261384d565b602082019050919050565b6000612e9260158361343d565b9150612e9d82613876565b602082019050919050565b6000612eb560148361343d565b9150612ec08261389f565b602082019050919050565b6000612ed860168361343d565b9150612ee3826138c8565b602082019050919050565b6000612efb601a8361343d565b9150612f06826138f1565b602082019050919050565b6000612f1e60128361343d565b9150612f298261391a565b602082019050919050565b6000612f4160138361343d565b9150612f4c82613943565b602082019050919050565b6000612f64600d8361343d565b9150612f6f8261396c565b602082019050919050565b6000612f8760168361343d565b9150612f9282613995565b602082019050919050565b6000612faa60138361343d565b9150612fb5826139be565b602082019050919050565b604082016000820151612fd66000850182612d4d565b506020820151612fe96020850182612fef565b50505050565b612ff881613595565b82525050565b61300781613595565b82525050565b60006020820190506130226000830184612d3e565b92915050565b600060a08201905081810360008301526130428188612d7a565b905081810360208301526130568187612d7a565b9050818103604083015261306a8186612d7a565b90506130796060830185612d3e565b6130866080830184612ffe565b9695505050505050565b600060808201905081810360008301526130aa8187612d7a565b90506130b96020830186612ffe565b81810360408301526130cb8185612d7a565b905081810360608301526130df8184612d7a565b905095945050505050565b6000602082019050818103600083015261310381612db3565b9050919050565b6000602082019050818103600083015261312381612dd6565b9050919050565b6000602082019050818103600083015261314381612df9565b9050919050565b6000602082019050818103600083015261316381612e1c565b9050919050565b6000602082019050818103600083015261318381612e3f565b9050919050565b600060208201905081810360008301526131a381612e62565b9050919050565b600060208201905081810360008301526131c381612e85565b9050919050565b600060208201905081810360008301526131e381612ea8565b9050919050565b6000602082019050818103600083015261320381612ecb565b9050919050565b6000602082019050818103600083015261322381612eee565b9050919050565b6000602082019050818103600083015261324381612f11565b9050919050565b6000602082019050818103600083015261326381612f34565b9050919050565b6000602082019050818103600083015261328381612f57565b9050919050565b600060208201905081810360008301526132a381612f7a565b9050919050565b600060208201905081810360008301526132c381612f9d565b9050919050565b60006020820190506132df6000830184612ffe565b92915050565b6000610180820190506132fb600083018e612ffe565b613308602083018d612ffe565b613315604083018c612d3e565b613322606083018b612d5c565b61332f608083018a612d3e565b61333c60a0830189612ffe565b81810360c083015261334e8188612d7a565b905061335d60e0830187612ffe565b61336b610100830186612d2f565b613379610120830185612fc0565b613387610160830184612d6b565b9c9b505050505050505050505050565b60006080820190506133ac6000830187612ffe565b6133b96020830186612ffe565b6133c66040830185612ffe565b6133d36060830184612d2f565b95945050505050565b60006133e66133f7565b90506133f28282613625565b919050565b6000604051905090565b600067ffffffffffffffff82111561341c5761341b61372c565b5b6134258261376f565b9050602081019050919050565b600081519050919050565b600082825260208201905092915050565b600061345982613595565b915061346483613595565b9250827fffffffffffffffffffffffffffffffffffffffffffffffffffffffffffffffff038211156134995761349861369f565b5b828201905092915050565b60006134af82613595565b91506134ba83613595565b9250817fffffffffffffffffffffffffffffffffffffffffffffffffffffffffffffffff04831182151516156134f3576134f261369f565b5b828202905092915050565b600061350982613595565b915061351483613595565b9250828210156135275761352661369f565b5b828203905092915050565b600061353d82613575565b9050919050565b600061354f82613575565b9050919050565b60008115159050919050565b6000819050613570826139e7565b919050565b600073ffffffffffffffffffffffffffffffffffffffff82169050919050565b6000819050919050565b60006135aa82613562565b9050919050565b82818337600083830152505050565b60005b838110156135de5780820151818401526020810190506135c3565b838111156135ed576000848401525b50505050565b6000600282049050600182168061360b57607f821691505b6020821081141561361f5761361e6136fd565b5b50919050565b61362e8261376f565b810181811067ffffffffffffffff8211171561364d5761364c61372c565b5b80604052505050565b600061366182613595565b91507fffffffffffffffffffffffffffffffffffffffffffffffffffffffffffffffff8214156136945761369361369f565b5b600182019050919050565b7f4e487b7100000000000000000000000000000000000000000000000000000000600052601160045260246000fd5b7f4e487b7100000000000000000000000000000000000000000000000000000000600052602160045260246000fd5b7f4e487b7100000000000000000000000000000000000000000000000000000000600052602260045260246000fd5b7f4e487b7100000000000000000000000000000000000000000000000000000000600052604160045260246000fd5b600080fd5b600080fd5b600080fd5b600080fd5b6000601f19601f8301169050919050565b7f44656c6976657279206e6f7420636f6e6669726d656420627920627579657200600082015250565b7f506179207468652064656c697665727920707269636500000000000000000000600082015250565b7f53656e6420657861637420616d6f756e74000000000000000000000000000000600082015250565b7f5175616e746974792063616e6e6f74206265207a65726f000000000000000000600082015250565b7f4163636f756e647420616c726561647920657869737473000000000000000000600082015250565b7f50726963652063616e6e6f74206265207a65726f000000000000000000000000600082015250565b7f4f72646572206973206e6f7420696e20636861696e0000000000000000000000600082015250565b7f456e7465722076616c6964206c6f636174696f6e000000000000000000000000600082015250565b7f4163636f756e7420616c72656461792065786973747300000000000000000000600082015250565b7f44656c6976657279206e6f7420636f6e6669726d206279204450000000000000600082015250565b7f456e7465722076616c6964206e756d6265720000000000000000000000000000600082015250565b7f4f72646572206e6f7420617661696c62616c6500000000000000000000000000600082015250565b7f4163636573732064656e69656400000000000000000000000000000000000000600082015250565b7f4163636f756e7420616c72656164792065786973747300000000000000000000600082015250565b7f52656475636520746865207175616e7469747900000000000000000000000000600082015250565b600681106139f8576139f76136ce565b5b50565b613a0481613532565b8114613a0f57600080fd5b50565b613a1b81613595565b8114613a2657600080fd5b5056fea2646970667358221220249327be28a47c2d9d668a32278f3a8a72ea4963f113833ce9ee92ab74b4989d64736f6c63430008070033",
  "linkReferences": {},
  "deployedLinkReferences": {}
}