{
  "_format": "hh-sol-artifact-1",
  "contractName": "DeEcomm",
  "sourceName": "contracts/DeEcomm.sol",
  "abi": [
    {
      "inputs": [],
      "name": "OutOfStock",
      "type": "error"
    },
    {
      "inputs": [
        {
          "internalType": "uint256",
          "name": "_productId",
          "type": "uint256"
        },
        {
          "internalType": "uint256",
          "name": "_quantity",
          "type": "uint256"
        }
      ],
      "name": "buyProduct",
      "outputs": [],
      "stateMutability": "payable",
      "type": "function"
    },
    {
      "inputs": [
        {
          "internalType": "address",
          "name": "_address",
          "type": "address"
        }
      ],
      "name": "buyerSignUpCheck",
      "outputs": [
        {
          "internalType": "bool",
          "name": "",
          "type": "bool"
        }
      ],
      "stateMutability": "view",
      "type": "function"
    },
    {
      "inputs": [
        {
          "internalType": "address",
          "name": "",
          "type": "address"
        }
      ],
      "name": "buyers",
      "outputs": [
        {
          "internalType": "string",
          "name": "name",
          "type": "string"
        },
        {
          "internalType": "uint256",
          "name": "locationPinCode",
          "type": "uint256"
        },
        {
          "internalType": "string",
          "name": "locationName",
          "type": "string"
        },
        {
          "internalType": "string",
          "name": "contactNumber",
          "type": "string"
        }
      ],
      "stateMutability": "view",
      "type": "function"
    },
    {
      "inputs": [
        {
          "internalType": "uint256",
          "name": "_orderId",
          "type": "uint256"
        }
      ],
      "name": "confirmDeliveryCustomer",
      "outputs": [],
      "stateMutability": "payable",
      "type": "function"
    },
    {
      "inputs": [
        {
          "internalType": "uint256",
          "name": "_orderId",
          "type": "uint256"
        }
      ],
      "name": "confirmDeliveryDP",
      "outputs": [],
      "stateMutability": "nonpayable",
      "type": "function"
    },
    {
      "inputs": [
        {
          "internalType": "uint256",
          "name": "",
          "type": "uint256"
        }
      ],
      "name": "deliverPersonAddressArray",
      "outputs": [
        {
          "internalType": "address",
          "name": "",
          "type": "address"
        }
      ],
      "stateMutability": "view",
      "type": "function"
    },
    {
      "inputs": [
        {
          "internalType": "address",
          "name": "",
          "type": "address"
        }
      ],
      "name": "deliveryPersons",
      "outputs": [
        {
          "internalType": "string",
          "name": "name",
          "type": "string"
        },
        {
          "internalType": "string",
          "name": "contactNumber",
          "type": "string"
        },
        {
          "internalType": "string",
          "name": "companyName",
          "type": "string"
        },
        {
          "internalType": "address",
          "name": "dpAddress",
          "type": "address"
        },
        {
          "internalType": "uint256",
          "name": "employeeID",
          "type": "uint256"
        }
      ],
      "stateMutability": "view",
      "type": "function"
    },
    {
      "inputs": [
        {
          "internalType": "address",
          "name": "",
          "type": "address"
        }
      ],
      "name": "orderCount",
      "outputs": [
        {
          "internalType": "uint256",
          "name": "",
          "type": "uint256"
        }
      ],
      "stateMutability": "view",
      "type": "function"
    },
    {
      "inputs": [
        {
          "internalType": "uint256",
          "name": "",
          "type": "uint256"
        }
      ],
      "name": "orderList",
      "outputs": [
        {
          "internalType": "uint256",
          "name": "orderId",
          "type": "uint256"
        },
        {
          "internalType": "uint256",
          "name": "quantity",
          "type": "uint256"
        },
        {
          "internalType": "address",
          "name": "buyer",
          "type": "address"
        },
        {
          "internalType": "bool",
          "name": "bid",
          "type": "bool"
        },
        {
          "internalType": "address",
          "name": "deliveryPerson",
          "type": "address"
        },
        {
          "internalType": "uint256",
          "name": "deliveryPrice",
          "type": "uint256"
        },
        {
          "internalType": "string",
          "name": "deliveryTime",
          "type": "string"
        },
        {
          "internalType": "uint256",
          "name": "orderPrice",
          "type": "uint256"
        },
        {
          "internalType": "address payable",
          "name": "seller",
          "type": "address"
        },
        {
          "components": [
            {
              "internalType": "bool",
              "name": "started",
              "type": "bool"
            },
            {
              "internalType": "uint256",
              "name": "endAt",
              "type": "uint256"
            }
          ],
          "internalType": "struct DeEcomm.Bidding",
          "name": "bidding",
          "type": "tuple"
        },
        {
          "internalType": "enum DeEcomm.OrderStatus",
          "name": "status",
          "type": "uint8"
        }
      ],
      "stateMutability": "view",
      "type": "function"
    },
    {
      "inputs": [
        {
          "internalType": "address",
          "name": "",
          "type": "address"
        },
        {
          "internalType": "uint256",
          "name": "",
          "type": "uint256"
        }
      ],
      "name": "orders",
      "outputs": [
        {
          "internalType": "uint256",
          "name": "orderId",
          "type": "uint256"
        },
        {
          "internalType": "uint256",
          "name": "quantity",
          "type": "uint256"
        },
        {
          "internalType": "address",
          "name": "buyer",
          "type": "address"
        },
        {
          "internalType": "bool",
          "name": "bid",
          "type": "bool"
        },
        {
          "internalType": "address",
          "name": "deliveryPerson",
          "type": "address"
        },
        {
          "internalType": "uint256",
          "name": "deliveryPrice",
          "type": "uint256"
        },
        {
          "internalType": "string",
          "name": "deliveryTime",
          "type": "string"
        },
        {
          "internalType": "uint256",
          "name": "orderPrice",
          "type": "uint256"
        },
        {
          "internalType": "address payable",
          "name": "seller",
          "type": "address"
        },
        {
          "components": [
            {
              "internalType": "bool",
              "name": "started",
              "type": "bool"
            },
            {
              "internalType": "uint256",
              "name": "endAt",
              "type": "uint256"
            }
          ],
          "internalType": "struct DeEcomm.Bidding",
          "name": "bidding",
          "type": "tuple"
        },
        {
          "internalType": "enum DeEcomm.OrderStatus",
          "name": "status",
          "type": "uint8"
        }
      ],
      "stateMutability": "view",
      "type": "function"
    },
    {
      "inputs": [
        {
          "internalType": "uint256",
          "name": "_orderId",
          "type": "uint256"
        },
        {
          "internalType": "uint256",
          "name": "_dprice",
          "type": "uint256"
        }
      ],
      "name": "payDeliveryPrice",
      "outputs": [],
      "stateMutability": "payable",
      "type": "function"
    },
    {
      "inputs": [
        {
          "internalType": "uint256",
          "name": "_orderId",
          "type": "uint256"
        }
      ],
      "name": "pickupOrder",
      "outputs": [],
      "stateMutability": "nonpayable",
      "type": "function"
    },
    {
      "inputs": [
        {
          "internalType": "uint256",
          "name": "",
          "type": "uint256"
        }
      ],
      "name": "products",
      "outputs": [
        {
          "internalType": "uint256",
          "name": "productId",
          "type": "uint256"
        },
        {
          "internalType": "uint256",
          "name": "price",
          "type": "uint256"
        },
        {
          "internalType": "uint256",
          "name": "availableQuantity",
          "type": "uint256"
        },
        {
          "internalType": "address payable",
          "name": "seller",
          "type": "address"
        }
      ],
      "stateMutability": "view",
      "type": "function"
    },
    {
      "inputs": [
        {
          "internalType": "uint256",
          "name": "_orderId",
          "type": "uint256"
        }
      ],
      "name": "recieveMoney",
      "outputs": [],
      "stateMutability": "nonpayable",
      "type": "function"
    },
    {
      "inputs": [
        {
          "internalType": "uint256",
          "name": "_price",
          "type": "uint256"
        },
        {
          "internalType": "uint256",
          "name": "_avalQuantity",
          "type": "uint256"
        }
      ],
      "name": "regProduct",
      "outputs": [],
      "stateMutability": "nonpayable",
      "type": "function"
    },
    {
      "inputs": [
        {
          "internalType": "address",
          "name": "",
          "type": "address"
        }
      ],
      "name": "sellers",
      "outputs": [
        {
          "internalType": "string",
          "name": "name",
          "type": "string"
        },
        {
          "internalType": "uint256",
          "name": "locationPinCode",
          "type": "uint256"
        },
        {
          "internalType": "string",
          "name": "locationName",
          "type": "string"
        },
        {
          "internalType": "string",
          "name": "contactNumber",
          "type": "string"
        }
      ],
      "stateMutability": "view",
      "type": "function"
    },
    {
      "inputs": [
        {
          "internalType": "string",
          "name": "_name",
          "type": "string"
        },
        {
          "internalType": "uint256",
          "name": "_locationPinCode",
          "type": "uint256"
        },
        {
          "internalType": "string",
          "name": "_locationName",
          "type": "string"
        },
        {
          "internalType": "string",
          "name": "_contactNumber",
          "type": "string"
        }
      ],
      "name": "signUpForBuyer",
      "outputs": [],
      "stateMutability": "nonpayable",
      "type": "function"
    },
    {
      "inputs": [
        {
          "internalType": "string",
          "name": "_companyName",
          "type": "string"
        },
        {
          "internalType": "string",
          "name": "_contactNumber",
          "type": "string"
        },
        {
          "internalType": "string",
          "name": "_name",
          "type": "string"
        },
        {
          "internalType": "uint256",
          "name": "_empId",
          "type": "uint256"
        }
      ],
      "name": "signUpForDeliveryPerson",
      "outputs": [],
      "stateMutability": "nonpayable",
      "type": "function"
    },
    {
      "inputs": [
        {
          "internalType": "string",
          "name": "_name",
          "type": "string"
        },
        {
          "internalType": "uint256",
          "name": "_locationPinCode",
          "type": "uint256"
        },
        {
          "internalType": "string",
          "name": "_locationName",
          "type": "string"
        },
        {
          "internalType": "string",
          "name": "_contactNumber",
          "type": "string"
        }
      ],
      "name": "signUpForSeller",
      "outputs": [],
      "stateMutability": "nonpayable",
      "type": "function"
    }
  ],
  "bytecode": "0x608060405260016000556001805534801561001957600080fd5b50613b20806100296000396000f3fe6080604052600436106101145760003560e01c80637895d147116100a057806397a993aa1161006457806397a993aa146104085780639eb722cf14610448578063a928f56a14610464578063e886846b1461048d578063f12a6201146104a957610114565b80637895d147146102f2578063793b8c6d1461032f57806379c47bc4146103765780637acc0b201461039f57806394efa2b4146103df57610114565b806353b62866116100e757806353b62866146101d5578063627ee876146101f15780636d47ab721461022e578063713d856b1461026e57806376f75e7f146102ab57610114565b80631c281c9a146101195780632a454bd81461015a5780633cdfbc10146101835780634dd52dc1146101ac575b600080fd5b34801561012557600080fd5b50610140600480360381019061013b9190612b85565b6104d2565b6040516101519594939291906130e9565b60405180910390f35b34801561016657600080fd5b50610181600480360381019061017c9190612d68565b6106c0565b005b34801561018f57600080fd5b506101aa60048036038101906101a59190612d95565b610830565b005b3480156101b857600080fd5b506101d360048036038101906101ce9190612d68565b610a37565b005b6101ef60048036038101906101ea9190612d95565b610ba6565b005b3480156101fd57600080fd5b5061021860048036038101906102139190612d68565b6112ef565b60405161022591906130b3565b60405180910390f35b34801561023a57600080fd5b5061025560048036038101906102509190612b85565b61132e565b6040516102659493929190613151565b60405180910390f35b34801561027a57600080fd5b5061029560048036038101906102909190612b85565b6114f6565b6040516102a2919061338b565b60405180910390f35b3480156102b757600080fd5b506102d260048036038101906102cd9190612d68565b61150e565b6040516102e99b9a999897969594939291906133a6565b60405180910390f35b3480156102fe57600080fd5b5061031960048036038101906103149190612b85565b611699565b60405161032691906130ce565b60405180910390f35b34801561033b57600080fd5b5061035660048036038101906103519190612bb2565b6116f7565b60405161036d9b9a999897969594939291906133a6565b60405180910390f35b34801561038257600080fd5b5061039d60048036038101906103989190612d68565b61188f565b005b3480156103ab57600080fd5b506103c660048036038101906103c19190612d68565b611ab0565b6040516103d69493929190613458565b60405180910390f35b3480156103eb57600080fd5b5061040660048036038101906104019190612cad565b611b00565b005b34801561041457600080fd5b5061042f600480360381019061042a9190612b85565b611d77565b60405161043f9493929190613151565b60405180910390f35b610462600480360381019061045d9190612d95565b611f3f565b005b34801561047057600080fd5b5061048b60048036038101906104869190612cad565b6120d1565b005b6104a760048036038101906104a29190612d68565b612348565b005b3480156104b557600080fd5b506104d060048036038101906104cb9190612bf2565b612510565b005b60066020528060005260406000206000915090508060000180546104f5906136b4565b80601f0160208091040260200160405190810160405280929190818152602001828054610521906136b4565b801561056e5780601f106105435761010080835404028352916020019161056e565b820191906000526020600020905b81548152906001019060200180831161055157829003601f168201915b505050505090806001018054610583906136b4565b80601f01602080910402602001604051908101604052809291908181526020018280546105af906136b4565b80156105fc5780601f106105d1576101008083540402835291602001916105fc565b820191906000526020600020905b8154815290600101906020018083116105df57829003601f168201915b505050505090806002018054610611906136b4565b80601f016020809104026020016040519081016040528092919081815260200182805461063d906136b4565b801561068a5780601f1061065f5761010080835404028352916020019161068a565b820191906000526020600020905b81548152906001019060200180831161066d57829003601f168201915b5050505050908060030160009054906101000a900473ffffffffffffffffffffffffffffffffffffffff16908060040154905085565b3373ffffffffffffffffffffffffffffffffffffffff166005600083815260200190815260200160002060030160009054906101000a900473ffffffffffffffffffffffffffffffffffffffff1673ffffffffffffffffffffffffffffffffffffffff1614610764576040517f08c379a000000000000000000000000000000000000000000000000000000000815260040161075b9061332b565b60405180910390fd5b600160058111156107785761077761378f565b5b60056000838152602001908152602001600020600a0160009054906101000a900460ff1660058111156107ae576107ad61378f565b5b146107ee576040517f08c379a00000000000000000000000000000000000000000000000000000000081526004016107e59061326b565b60405180910390fd5b600360056000838152602001908152602001600020600a0160006101000a81548160ff021916908360058111156108285761082761378f565b5b021790555050565b6000600860003373ffffffffffffffffffffffffffffffffffffffff1673ffffffffffffffffffffffffffffffffffffffff1681526020019081526020016000206001015414156108b6576040517f08c379a00000000000000000000000000000000000000000000000000000000081526004016108ad9061332b565b60405180910390fd5b60008214156108fa576040517f08c379a00000000000000000000000000000000000000000000000000000000081526004016108f19061324b565b60405180910390fd5b600081141561093e576040517f08c379a00000000000000000000000000000000000000000000000000000000081526004016109359061320b565b60405180910390fd5b6109466128a3565b828160200181815250508181604001818152505033816060019073ffffffffffffffffffffffffffffffffffffffff16908173ffffffffffffffffffffffffffffffffffffffff168152505060005481600001818152505080600260008054815260200190815260200160002060008201518160000155602082015181600101556040820151816002015560608201518160030160006101000a81548173ffffffffffffffffffffffffffffffffffffffff021916908373ffffffffffffffffffffffffffffffffffffffff160217905550905050600080815480929190610a2d90613717565b9190505550505050565b3373ffffffffffffffffffffffffffffffffffffffff166005600083815260200190815260200160002060030160009054906101000a900473ffffffffffffffffffffffffffffffffffffffff1673ffffffffffffffffffffffffffffffffffffffff1614610adb576040517f08c379a0000000000000000000000000000000000000000000000000000000008152600401610ad29061332b565b60405180910390fd5b600580811115610aee57610aed61378f565b5b60056000838152602001908152602001600020600a0160009054906101000a900460ff166005811115610b2457610b2361378f565b5b14610b64576040517f08c379a0000000000000000000000000000000000000000000000000000000008152600401610b5b9061330b565b60405180910390fd5b600160056000838152602001908152602001600020600a0160006101000a81548160ff02191690836005811115610b9e57610b9d61378f565b5b021790555050565b6000600760003373ffffffffffffffffffffffffffffffffffffffff1673ffffffffffffffffffffffffffffffffffffffff168152602001908152602001600020600101541415610c2c576040517f08c379a0000000000000000000000000000000000000000000000000000000008152600401610c239061332b565b60405180910390fd5b600060026000848152602001908152602001600020600201541415610c7d576040517fade1cb4100000000000000000000000000000000000000000000000000000000815260040160405180910390fd5b6002600083815260200190815260200160002060020154811115610cd6576040517f08c379a0000000000000000000000000000000000000000000000000000000008152600401610ccd9061336b565b60405180910390fd5b806002600084815260200190815260200160002060010154610cf89190613565565b3414610d39576040517f08c379a0000000000000000000000000000000000000000000000000000000008152600401610d30906131eb565b60405180910390fd5b610d416128e1565b33816040019073ffffffffffffffffffffffffffffffffffffffff16908173ffffffffffffffffffffffffffffffffffffffff168152505081816020018181525050600181606001901515908115158152505060015481600001818152505060018161012001516000019015159081151581525050603c42610dc3919061350f565b8161012001516020018181525050816002600085815260200190815260200160002060010154610df39190613565565b8160e00181815250506002600084815260200190815260200160002060030160009054906101000a900473ffffffffffffffffffffffffffffffffffffffff1681610100019073ffffffffffffffffffffffffffffffffffffffff16908173ffffffffffffffffffffffffffffffffffffffff168152505080600360003373ffffffffffffffffffffffffffffffffffffffff1673ffffffffffffffffffffffffffffffffffffffff16815260200190815260200160002060006001548152602001908152602001600020600082015181600001556020820151816001015560408201518160020160006101000a81548173ffffffffffffffffffffffffffffffffffffffff021916908373ffffffffffffffffffffffffffffffffffffffff16021790555060608201518160020160146101000a81548160ff02191690831515021790555060808201518160030160006101000a81548173ffffffffffffffffffffffffffffffffffffffff021916908373ffffffffffffffffffffffffffffffffffffffff16021790555060a0820151816004015560c0820151816005019080519060200190610fa6929190612997565b5060e082015181600601556101008201518160070160006101000a81548173ffffffffffffffffffffffffffffffffffffffff021916908373ffffffffffffffffffffffffffffffffffffffff1602179055506101208201518160080160008201518160000160006101000a81548160ff02191690831515021790555060208201518160010155505061014082015181600a0160006101000a81548160ff0219169083600581111561105b5761105a61378f565b5b021790555090505080600560006001548152602001908152602001600020600082015181600001556020820151816001015560408201518160020160006101000a81548173ffffffffffffffffffffffffffffffffffffffff021916908373ffffffffffffffffffffffffffffffffffffffff16021790555060608201518160020160146101000a81548160ff02191690831515021790555060808201518160030160006101000a81548173ffffffffffffffffffffffffffffffffffffffff021916908373ffffffffffffffffffffffffffffffffffffffff16021790555060a0820151816004015560c0820151816005019080519060200190611161929190612997565b5060e082015181600601556101008201518160070160006101000a81548173ffffffffffffffffffffffffffffffffffffffff021916908373ffffffffffffffffffffffffffffffffffffffff1602179055506101208201518160080160008201518160000160006101000a81548160ff02191690831515021790555060208201518160010155505061014082015181600a0160006101000a81548160ff021916908360058111156112165761121561378f565b5b0217905550905050600081610140019060058111156112385761123761378f565b5b9081600581111561124c5761124b61378f565b5b81525050600460003373ffffffffffffffffffffffffffffffffffffffff1673ffffffffffffffffffffffffffffffffffffffff16815260200190815260200160002060008154809291906112a090613717565b9190505550600160008154809291906112b890613717565b9190505550816002600085815260200190815260200160002060020160008282546112e391906135bf565b92505081905550505050565b600981815481106112ff57600080fd5b906000526020600020016000915054906101000a900473ffffffffffffffffffffffffffffffffffffffff1681565b6008602052806000526040600020600091509050806000018054611351906136b4565b80601f016020809104026020016040519081016040528092919081815260200182805461137d906136b4565b80156113ca5780601f1061139f576101008083540402835291602001916113ca565b820191906000526020600020905b8154815290600101906020018083116113ad57829003601f168201915b5050505050908060010154908060020180546113e5906136b4565b80601f0160208091040260200160405190810160405280929190818152602001828054611411906136b4565b801561145e5780601f106114335761010080835404028352916020019161145e565b820191906000526020600020905b81548152906001019060200180831161144157829003601f168201915b505050505090806003018054611473906136b4565b80601f016020809104026020016040519081016040528092919081815260200182805461149f906136b4565b80156114ec5780601f106114c1576101008083540402835291602001916114ec565b820191906000526020600020905b8154815290600101906020018083116114cf57829003601f168201915b5050505050905084565b60046020528060005260406000206000915090505481565b60056020528060005260406000206000915090508060000154908060010154908060020160009054906101000a900473ffffffffffffffffffffffffffffffffffffffff16908060020160149054906101000a900460ff16908060030160009054906101000a900473ffffffffffffffffffffffffffffffffffffffff16908060040154908060050180546115a2906136b4565b80601f01602080910402602001604051908101604052809291908181526020018280546115ce906136b4565b801561161b5780601f106115f05761010080835404028352916020019161161b565b820191906000526020600020905b8154815290600101906020018083116115fe57829003601f168201915b5050505050908060060154908060070160009054906101000a900473ffffffffffffffffffffffffffffffffffffffff1690806008016040518060400160405290816000820160009054906101000a900460ff161515151581526020016001820154815250509080600a0160009054906101000a900460ff1690508b565b600080600760008473ffffffffffffffffffffffffffffffffffffffff1673ffffffffffffffffffffffffffffffffffffffff16815260200190815260200160002060010154146116ed57600190506116f2565b600090505b919050565b6003602052816000526040600020602052806000526040600020600091509150508060000154908060010154908060020160009054906101000a900473ffffffffffffffffffffffffffffffffffffffff16908060020160149054906101000a900460ff16908060030160009054906101000a900473ffffffffffffffffffffffffffffffffffffffff1690806004015490806005018054611798906136b4565b80601f01602080910402602001604051908101604052809291908181526020018280546117c4906136b4565b80156118115780601f106117e657610100808354040283529160200191611811565b820191906000526020600020905b8154815290600101906020018083116117f457829003601f168201915b5050505050908060060154908060070160009054906101000a900473ffffffffffffffffffffffffffffffffffffffff1690806008016040518060400160405290816000820160009054906101000a900460ff161515151581526020016001820154815250509080600a0160009054906101000a900460ff1690508b565b3373ffffffffffffffffffffffffffffffffffffffff166005600083815260200190815260200160002060030160009054906101000a900473ffffffffffffffffffffffffffffffffffffffff1673ffffffffffffffffffffffffffffffffffffffff1614611933576040517f08c379a000000000000000000000000000000000000000000000000000000000815260040161192a9061332b565b60405180910390fd5b600460058111156119475761194661378f565b5b60056000838152602001908152602001600020600a0160009054906101000a900460ff16600581111561197d5761197c61378f565b5b146119bd576040517f08c379a00000000000000000000000000000000000000000000000000000000081526004016119b4906131ab565b60405180910390fd5b6005600082815260200190815260200160002060070160009054906101000a900473ffffffffffffffffffffffffffffffffffffffff1673ffffffffffffffffffffffffffffffffffffffff166108fc60056000848152602001908152602001600020600601549081150290604051600060405180830381858888f19350505050158015611a4f573d6000803e3d6000fd5b503373ffffffffffffffffffffffffffffffffffffffff166108fc60056000848152602001908152602001600020600401549081150290604051600060405180830381858888f19350505050158015611aac573d6000803e3d6000fd5b5050565b60026020528060005260406000206000915090508060000154908060010154908060020154908060030160009054906101000a900473ffffffffffffffffffffffffffffffffffffffff16905084565b6000831415611b44576040517f08c379a0000000000000000000000000000000000000000000000000000000008152600401611b3b9061328b565b60405180910390fd5b600081511415611b89576040517f08c379a0000000000000000000000000000000000000000000000000000000008152600401611b80906132eb565b60405180910390fd5b6000600660003373ffffffffffffffffffffffffffffffffffffffff1673ffffffffffffffffffffffffffffffffffffffff1681526020019081526020016000206001018054611bd8906136b4565b905014611c1a576040517f08c379a0000000000000000000000000000000000000000000000000000000008152600401611c119061322b565b60405180910390fd5b6000600760003373ffffffffffffffffffffffffffffffffffffffff1673ffffffffffffffffffffffffffffffffffffffff1681526020019081526020016000206001015414611c9f576040517f08c379a0000000000000000000000000000000000000000000000000000000008152600401611c96906132ab565b60405180910390fd5b611ca7612a1d565b8481600001819052508381602001818152505082816040018190525081816060018190525080600860003373ffffffffffffffffffffffffffffffffffffffff1673ffffffffffffffffffffffffffffffffffffffff1681526020019081526020016000206000820151816000019080519060200190611d28929190612997565b50602082015181600101556040820151816002019080519060200190611d4f929190612997565b506060820151816003019080519060200190611d6c929190612997565b509050505050505050565b6007602052806000526040600020600091509050806000018054611d9a906136b4565b80601f0160208091040260200160405190810160405280929190818152602001828054611dc6906136b4565b8015611e135780601f10611de857610100808354040283529160200191611e13565b820191906000526020600020905b815481529060010190602001808311611df657829003601f168201915b505050505090806001015490806002018054611e2e906136b4565b80601f0160208091040260200160405190810160405280929190818152602001828054611e5a906136b4565b8015611ea75780601f10611e7c57610100808354040283529160200191611ea7565b820191906000526020600020905b815481529060010190602001808311611e8a57829003601f168201915b505050505090806003018054611ebc906136b4565b80601f0160208091040260200160405190810160405280929190818152602001828054611ee8906136b4565b8015611f355780601f10611f0a57610100808354040283529160200191611f35565b820191906000526020600020905b815481529060010190602001808311611f1857829003601f168201915b5050505050905084565b600580811115611f5257611f5161378f565b5b60056000848152602001908152602001600020600a0160009054906101000a900460ff166005811115611f8857611f8761378f565b5b14611f9257600080fd5b3373ffffffffffffffffffffffffffffffffffffffff166005600084815260200190815260200160002060020160009054906101000a900473ffffffffffffffffffffffffffffffffffffffff1673ffffffffffffffffffffffffffffffffffffffff1614612036576040517f08c379a000000000000000000000000000000000000000000000000000000000815260040161202d9061332b565b60405180910390fd5b6005600083815260200190815260200160002060040154811461208e576040517f08c379a0000000000000000000000000000000000000000000000000000000008152600401612085906131eb565b60405180910390fd5b600260056000848152602001908152602001600020600a0160006101000a81548160ff021916908360058111156120c8576120c761378f565b5b02179055505050565b6000831415612115576040517f08c379a000000000000000000000000000000000000000000000000000000000815260040161210c9061328b565b60405180910390fd5b60008151141561215a576040517f08c379a0000000000000000000000000000000000000000000000000000000008152600401612151906132eb565b60405180910390fd5b6000600860003373ffffffffffffffffffffffffffffffffffffffff1673ffffffffffffffffffffffffffffffffffffffff16815260200190815260200160002060010154146121df576040517f08c379a00000000000000000000000000000000000000000000000000000000081526004016121d69061334b565b60405180910390fd5b6000600660003373ffffffffffffffffffffffffffffffffffffffff1673ffffffffffffffffffffffffffffffffffffffff168152602001908152602001600020600101805461222e906136b4565b905014612270576040517f08c379a00000000000000000000000000000000000000000000000000000000081526004016122679061322b565b60405180910390fd5b612278612a45565b8481600001819052508381602001818152505082816040018190525081816060018190525080600760003373ffffffffffffffffffffffffffffffffffffffff1673ffffffffffffffffffffffffffffffffffffffff16815260200190815260200160002060008201518160000190805190602001906122f9929190612997565b50602082015181600101556040820151816002019080519060200190612320929190612997565b50606082015181600301908051906020019061233d929190612997565b509050505050505050565b600560008281526020019081526020016000206004015434146123a0576040517f08c379a0000000000000000000000000000000000000000000000000000000008152600401612397906131cb565b60405180910390fd5b3373ffffffffffffffffffffffffffffffffffffffff166005600083815260200190815260200160002060020160009054906101000a900473ffffffffffffffffffffffffffffffffffffffff1673ffffffffffffffffffffffffffffffffffffffff1614612444576040517f08c379a000000000000000000000000000000000000000000000000000000000815260040161243b9061332b565b60405180910390fd5b600360058111156124585761245761378f565b5b60056000838152602001908152602001600020600a0160009054906101000a900460ff16600581111561248e5761248d61378f565b5b146124ce576040517f08c379a00000000000000000000000000000000000000000000000000000000081526004016124c5906132cb565b60405180910390fd5b600460056000838152602001908152602001600020600a0160006101000a81548160ff021916908360058111156125085761250761378f565b5b021790555050565b600083511415612555576040517f08c379a000000000000000000000000000000000000000000000000000000000815260040161254c9061328b565b60405180910390fd5b60008451141561259a576040517f08c379a00000000000000000000000000000000000000000000000000000000081526004016125919061328b565b60405180910390fd5b6000825114156125df576040517f08c379a00000000000000000000000000000000000000000000000000000000081526004016125d69061328b565b60405180910390fd5b6000600760003373ffffffffffffffffffffffffffffffffffffffff1673ffffffffffffffffffffffffffffffffffffffff1681526020019081526020016000206001015414612664576040517f08c379a000000000000000000000000000000000000000000000000000000000815260040161265b906132ab565b60405180910390fd5b6000600860003373ffffffffffffffffffffffffffffffffffffffff1673ffffffffffffffffffffffffffffffffffffffff16815260200190815260200160002060010154146126e9576040517f08c379a00000000000000000000000000000000000000000000000000000000081526004016126e09061334b565b60405180910390fd5b6126f1612a6d565b84816040018190525083816020018190525082816000018190525033816060019073ffffffffffffffffffffffffffffffffffffffff16908173ffffffffffffffffffffffffffffffffffffffff16815250508181608001818152505080600660003373ffffffffffffffffffffffffffffffffffffffff1673ffffffffffffffffffffffffffffffffffffffff16815260200190815260200160002060008201518160000190805190602001906127aa929190612997565b5060208201518160010190805190602001906127c7929190612997565b5060408201518160020190805190602001906127e4929190612997565b5060608201518160030160006101000a81548173ffffffffffffffffffffffffffffffffffffffff021916908373ffffffffffffffffffffffffffffffffffffffff160217905550608082015181600401559050506009339080600181540180825580915050600190039060005260206000200160009091909190916101000a81548173ffffffffffffffffffffffffffffffffffffffff021916908373ffffffffffffffffffffffffffffffffffffffff1602179055505050505050565b6040518060800160405280600081526020016000815260200160008152602001600073ffffffffffffffffffffffffffffffffffffffff1681525090565b6040518061016001604052806000815260200160008152602001600073ffffffffffffffffffffffffffffffffffffffff168152602001600015158152602001600073ffffffffffffffffffffffffffffffffffffffff168152602001600081526020016060815260200160008152602001600073ffffffffffffffffffffffffffffffffffffffff168152602001612978612ab2565b8152602001600060058111156129915761299061378f565b5b81525090565b8280546129a3906136b4565b90600052602060002090601f0160209004810192826129c55760008555612a0c565b82601f106129de57805160ff1916838001178555612a0c565b82800160010185558215612a0c579182015b82811115612a0b5782518255916020019190600101906129f0565b5b509050612a199190612ace565b5090565b6040518060800160405280606081526020016000815260200160608152602001606081525090565b6040518060800160405280606081526020016000815260200160608152602001606081525090565b6040518060a00160405280606081526020016060815260200160608152602001600073ffffffffffffffffffffffffffffffffffffffff168152602001600081525090565b6040518060400160405280600015158152602001600081525090565b5b80821115612ae7576000816000905550600101612acf565b5090565b6000612afe612af9846134c2565b61349d565b905082815260208101848484011115612b1a57612b19613821565b5b612b25848285613672565b509392505050565b600081359050612b3c81613abc565b92915050565b600082601f830112612b5757612b5661381c565b5b8135612b67848260208601612aeb565b91505092915050565b600081359050612b7f81613ad3565b92915050565b600060208284031215612b9b57612b9a61382b565b5b6000612ba984828501612b2d565b91505092915050565b60008060408385031215612bc957612bc861382b565b5b6000612bd785828601612b2d565b9250506020612be885828601612b70565b9150509250929050565b60008060008060808587031215612c0c57612c0b61382b565b5b600085013567ffffffffffffffff811115612c2a57612c29613826565b5b612c3687828801612b42565b945050602085013567ffffffffffffffff811115612c5757612c56613826565b5b612c6387828801612b42565b935050604085013567ffffffffffffffff811115612c8457612c83613826565b5b612c9087828801612b42565b9250506060612ca187828801612b70565b91505092959194509250565b60008060008060808587031215612cc757612cc661382b565b5b600085013567ffffffffffffffff811115612ce557612ce4613826565b5b612cf187828801612b42565b9450506020612d0287828801612b70565b935050604085013567ffffffffffffffff811115612d2357612d22613826565b5b612d2f87828801612b42565b925050606085013567ffffffffffffffff811115612d5057612d4f613826565b5b612d5c87828801612b42565b91505092959194509250565b600060208284031215612d7e57612d7d61382b565b5b6000612d8c84828501612b70565b91505092915050565b60008060408385031215612dac57612dab61382b565b5b6000612dba85828601612b70565b9250506020612dcb85828601612b70565b9150509250929050565b612dde81613605565b82525050565b612ded816135f3565b82525050565b612dfc81613617565b82525050565b612e0b81613617565b82525050565b612e1a81613660565b82525050565b6000612e2b826134f3565b612e3581856134fe565b9350612e45818560208601613681565b612e4e81613830565b840191505092915050565b6000612e66601f836134fe565b9150612e7182613841565b602082019050919050565b6000612e896016836134fe565b9150612e948261386a565b602082019050919050565b6000612eac6011836134fe565b9150612eb782613893565b602082019050919050565b6000612ecf6017836134fe565b9150612eda826138bc565b602082019050919050565b6000612ef26017836134fe565b9150612efd826138e5565b602082019050919050565b6000612f156014836134fe565b9150612f208261390e565b602082019050919050565b6000612f386015836134fe565b9150612f4382613937565b602082019050919050565b6000612f5b6014836134fe565b9150612f6682613960565b602082019050919050565b6000612f7e6016836134fe565b9150612f8982613989565b602082019050919050565b6000612fa1601a836134fe565b9150612fac826139b2565b602082019050919050565b6000612fc46012836134fe565b9150612fcf826139db565b602082019050919050565b6000612fe76013836134fe565b9150612ff282613a04565b602082019050919050565b600061300a600d836134fe565b915061301582613a2d565b602082019050919050565b600061302d6016836134fe565b915061303882613a56565b602082019050919050565b60006130506013836134fe565b915061305b82613a7f565b602082019050919050565b60408201600082015161307c6000850182612df3565b50602082015161308f6020850182613095565b50505050565b61309e81613656565b82525050565b6130ad81613656565b82525050565b60006020820190506130c86000830184612de4565b92915050565b60006020820190506130e36000830184612e02565b92915050565b600060a08201905081810360008301526131038188612e20565b905081810360208301526131178187612e20565b9050818103604083015261312b8186612e20565b905061313a6060830185612de4565b61314760808301846130a4565b9695505050505050565b6000608082019050818103600083015261316b8187612e20565b905061317a60208301866130a4565b818103604083015261318c8185612e20565b905081810360608301526131a08184612e20565b905095945050505050565b600060208201905081810360008301526131c481612e59565b9050919050565b600060208201905081810360008301526131e481612e7c565b9050919050565b6000602082019050818103600083015261320481612e9f565b9050919050565b6000602082019050818103600083015261322481612ec2565b9050919050565b6000602082019050818103600083015261324481612ee5565b9050919050565b6000602082019050818103600083015261326481612f08565b9050919050565b6000602082019050818103600083015261328481612f2b565b9050919050565b600060208201905081810360008301526132a481612f4e565b9050919050565b600060208201905081810360008301526132c481612f71565b9050919050565b600060208201905081810360008301526132e481612f94565b9050919050565b6000602082019050818103600083015261330481612fb7565b9050919050565b6000602082019050818103600083015261332481612fda565b9050919050565b6000602082019050818103600083015261334481612ffd565b9050919050565b6000602082019050818103600083015261336481613020565b9050919050565b6000602082019050818103600083015261338481613043565b9050919050565b60006020820190506133a060008301846130a4565b92915050565b6000610180820190506133bc600083018e6130a4565b6133c9602083018d6130a4565b6133d6604083018c612de4565b6133e3606083018b612e02565b6133f0608083018a612de4565b6133fd60a08301896130a4565b81810360c083015261340f8188612e20565b905061341e60e08301876130a4565b61342c610100830186612dd5565b61343a610120830185613066565b613448610160830184612e11565b9c9b505050505050505050505050565b600060808201905061346d60008301876130a4565b61347a60208301866130a4565b61348760408301856130a4565b6134946060830184612dd5565b95945050505050565b60006134a76134b8565b90506134b382826136e6565b919050565b6000604051905090565b600067ffffffffffffffff8211156134dd576134dc6137ed565b5b6134e682613830565b9050602081019050919050565b600081519050919050565b600082825260208201905092915050565b600061351a82613656565b915061352583613656565b9250827fffffffffffffffffffffffffffffffffffffffffffffffffffffffffffffffff0382111561355a57613559613760565b5b828201905092915050565b600061357082613656565b915061357b83613656565b9250817fffffffffffffffffffffffffffffffffffffffffffffffffffffffffffffffff04831182151516156135b4576135b3613760565b5b828202905092915050565b60006135ca82613656565b91506135d583613656565b9250828210156135e8576135e7613760565b5b828203905092915050565b60006135fe82613636565b9050919050565b600061361082613636565b9050919050565b60008115159050919050565b600081905061363182613aa8565b919050565b600073ffffffffffffffffffffffffffffffffffffffff82169050919050565b6000819050919050565b600061366b82613623565b9050919050565b82818337600083830152505050565b60005b8381101561369f578082015181840152602081019050613684565b838111156136ae576000848401525b50505050565b600060028204905060018216806136cc57607f821691505b602082108114156136e0576136df6137be565b5b50919050565b6136ef82613830565b810181811067ffffffffffffffff8211171561370e5761370d6137ed565b5b80604052505050565b600061372282613656565b91507fffffffffffffffffffffffffffffffffffffffffffffffffffffffffffffffff82141561375557613754613760565b5b600182019050919050565b7f4e487b7100000000000000000000000000000000000000000000000000000000600052601160045260246000fd5b7f4e487b7100000000000000000000000000000000000000000000000000000000600052602160045260246000fd5b7f4e487b7100000000000000000000000000000000000000000000000000000000600052602260045260246000fd5b7f4e487b7100000000000000000000000000000000000000000000000000000000600052604160045260246000fd5b600080fd5b600080fd5b600080fd5b600080fd5b6000601f19601f8301169050919050565b7f44656c6976657279206e6f7420636f6e6669726d656420627920627579657200600082015250565b7f506179207468652064656c697665727920707269636500000000000000000000600082015250565b7f53656e6420657861637420616d6f756e74000000000000000000000000000000600082015250565b7f5175616e746974792063616e6e6f74206265207a65726f000000000000000000600082015250565b7f4163636f756e647420616c726561647920657869737473000000000000000000600082015250565b7f50726963652063616e6e6f74206265207a65726f000000000000000000000000600082015250565b7f4f72646572206973206e6f7420696e20636861696e0000000000000000000000600082015250565b7f456e7465722076616c6964206c6f636174696f6e000000000000000000000000600082015250565b7f4163636f756e7420616c72656461792065786973747300000000000000000000600082015250565b7f44656c6976657279206e6f7420636f6e6669726d206279204450000000000000600082015250565b7f456e7465722076616c6964206e756d6265720000000000000000000000000000600082015250565b7f4f72646572206e6f7420617661696c62616c6500000000000000000000000000600082015250565b7f4163636573732064656e69656400000000000000000000000000000000000000600082015250565b7f4163636f756e7420616c72656164792065786973747300000000000000000000600082015250565b7f52656475636520746865207175616e7469747900000000000000000000000000600082015250565b60068110613ab957613ab861378f565b5b50565b613ac5816135f3565b8114613ad057600080fd5b50565b613adc81613656565b8114613ae757600080fd5b5056fea26469706673582212203a09c7645151b248106bee12b8b5d12c9a9cfccb81c3889e5e38c3b96af4ae6364736f6c63430008070033",
  "linkReferences": {},
  "deployedLinkReferences": {}
}